:100000000C9463000C948B000C948B000C948B006C
:100010000C948B000C948B000C948B000C948B0034
:100020000C948B000C948B000C948B000C948B0024
:100030000C948B000C948B000C948B000C948B0014
:100040000C9407030C948B000C94D5020C94AF0213
:100050000C948B000C948B000C948B000C948B00F4
:100060000C948B000C948B000000000023002600F1
:10007000290000000008000201000003040700003E
:1000800000000000000000000000250028002B00F8
:1000900000000000240027002A00040404040404D3
:1000A0000404020202020202030303030303010227
:1000B00004081020408001020408102001020408F6
:1000C000102051030E0511241FBECFEFD8E0DEBF74
:1000D000CDBF21E0ACE1B1E001C01D92AC3DB20763
:1000E000E1F711E0A0E0B1E0EAEEFEE002C0059029
:1000F0000D92AC31B107D9F710E0C2E6D0E004C0F0
:100100002197FE010E947005C136D107C9F70E94F0
:10011000D8030C9468070C940000CF93DF9390E011
:10012000FC01E255FF4F249186569F4FFC018491BC
:100130008823C1F090E0880F991FFC01E057FF4F22
:10014000C591D491FC01EA57FF4FA591B4919FB797
:10015000F8948881E22FE0958E2388838C91E823A0
:10016000EC939FBFDF91CF910895AF92BF92CF9252
:10017000DF92EF92FF920F931F93CF93DF936C0167
:100180007B018B01040F151FEB015E01AE18BF0848
:10019000C017D10759F06991D601ED91FC910190FA
:1001A000F081E02DC6010995892B79F7C501DF9112
:1001B000CF911F910F91FF90EF90DF90CF90BF9064
:1001C000AF900895FC01538D448D252F30E0842F8E
:1001D00090E0821B930B541710F0CF96089501976F
:1001E0000895FC01918D828D981761F0A28DAE0F5C
:1001F000BF2FB11D5D968C91928D9F5F9F73928FE3
:1002000090E008958FEF9FEF0895FC01918D828D0E
:10021000981731F0828DE80FF11D858D90E00895DB
:100220008FEF9FEF0895FC01918D228D892F90E033
:10023000805C9F4F821B91098F739927089585E3F6
:1002400091E00E94130121E0892B09F420E0822F24
:10025000089580E090E0892B29F00E941F01811110
:100260000C9400000895FC01A48DA80FB92FB11DB6
:10027000A35ABF4F2C91848D90E001968F739927DC
:10028000848FA689B7892C93A089B1898C918370BA
:1002900080648C93938D848D981306C00288F389B3
:1002A000E02D80818F7D80830895EF92FF920F93E0
:1002B0001F93CF93DF93EC0181E0888F9B8D8C8D12
:1002C00098131AC0E889F989808185FF15C09FB706
:1002D000F894EE89FF896083E889F98980818370C9
:1002E000806480839FBF81E090E0DF91CF911F9178
:1002F0000F91FF90EF900895F62E0B8D10E00F5F99
:100300001F4F0F731127E02E8C8D8E110CC00FB66E
:1003100007FCFACFE889F989808185FFF5CFCE0106
:100320000E943301F1CFEB8DEC0FFD2FF11DE35A4D
:10033000FF4FF0829FB7F8940B8FEA89FB89808189
:100340008062CFCFCF93DF93EC01888D8823B9F003
:10035000AA89BB89E889F9898C9185FD03C08081D0
:1003600086FD0DC00FB607FCF7CF8C9185FFF2CF4D
:10037000808185FFEDCFCE010E943301E9CFDF916F
:10038000CF91089590E0FC01EE58FF4F2491FC01BD
:10039000E255FF4F3491FC01E656FF4FE491EE2306
:1003A000C1F1222339F02330E9F090F4213001F13A
:1003B000223011F1F0E0EE0FFF1FE859FF4FA59139
:1003C000B491EC91E32381E090E029F580E0089579
:1003D0002730A9F02830C9F0243061F780918000DF
:1003E0008F7D03C0809180008F7780938000E2CF63
:1003F00084B58F7784BDDECF84B58F7DFBCF8091B0
:10040000B0008F778093B000D5CF8091B0008F7D02
:10041000F9CF80E090E008953FB7F89480912101F2
:1004200090912201A0912301B091240126B5A89BAF
:1004300005C02F3F19F00196A11DB11D3FBFBA2F76
:10044000A92F982F8827BC01CD01620F711D811D36
:10045000911D42E0660F771F881F991F4A95D1F7BB
:1004600008958F929F92AF92BF920F931F93CF9355
:10047000DF93CDB7DEB7A1970FB6F894DEBF0FBEFE
:10048000CDBF19A2423008F44AE08E010F5D1F4F24
:10049000842E912CB12CA12CA50194010E944E0513
:1004A000E62FB901CA01EA3044F5E05DD801EE93C8
:1004B0008D01232B242B252B79F790E080E01097DA
:1004C00069F0FD0101900020E9F73197AF014A1B67
:1004D0005B0BBD0185E391E00E94B500A1960FB6CC
:1004E000F894DEBF0FBECDBFDF91CF911F910F916A
:1004F000BF90AF909F908F900895E95CD7CFCF9237
:10050000DF92EF92FF92CF93DF936C01990FEE0889
:10051000FF08F7FE19C06DE285E391E00E945501E6
:10052000EC0166277727CB016C197D098E099F099D
:100530004AE00E9431028C0F9D1FDF91CF91FF9006
:10054000EF90DF90CF9008954AE0C701B601DF91A8
:10055000CF91FF90EF90DF90CF900C9431021F92DB
:100560000F920FB60F9211242F933F934F935F93E7
:100570006F937F938F939F93AF93BF93EF93FF936B
:1005800085E391E00E943301FF91EF91BF91AF911C
:100590009F918F917F916F915F914F913F912F919B
:1005A0000F900FBE0F901F9018951F920F920FB6CD
:1005B0000F9211242F938F939F93EF93FF93E091CA
:1005C0004501F09146018081E0914B01F0914C0191
:1005D00082FD1BC0908180914E018F5F8F732091AF
:1005E0004F01821741F0E0914E01F0E0EB5CFE4FCD
:1005F000958F80934E01FF91EF919F918F912F9155
:100600000F900FBE0F901F9018958081F4CF1F920E
:100610000F920FB60F9211242F933F938F939F93B6
:10062000AF93BF9380911D0190911E01A0911F0176
:10063000B091200130911C0123E0230F2D3758F594
:100640000196A11DB11D20931C0180931D01909363
:100650001E01A0931F01B093200180912101909170
:100660002201A0912301B09124010196A11DB11D89
:100670008093210190932201A0932301B093240140
:10068000BF91AF919F918F913F912F910F900FBE8E
:100690000F901F90189526E8230F0296A11DB11DFB
:1006A000D2CF109238011092370188EE93E0A0E08B
:1006B000B0E08093390190933A01A0933B01B0934D
:1006C0003C018AE091E0909336018093350185ECFE
:1006D00090E0909342018093410184EC90E09093EC
:1006E00044018093430180EC90E090934601809315
:1006F000450181EC90E0909348018093470182ECA2
:1007000090E090934A018093490186EC90E09093A9
:100710004C0180934B0110924E0110924F011092A8
:100720005001109251011092D3011092D2011092F7
:10073000D5011092D4011092D7011092D60161E038
:1007400070E090E080E00E949B060097E1F09093BB
:10075000D3018093D2011092D5011092D40120913F
:10076000D6013091D701232B11F4FC011082109295
:10077000D7011092D6016AE171E08091D201909187
:10078000D3010C9461078091D2019091D30100971D
:1007900011F00E9412061092D3011092D201109211
:1007A000D7011092D6011092D5011092D40108956C
:1007B000789484B5826084BD84B5816084BD85B53C
:1007C000826085BD85B5816085BD80916E00816048
:1007D00080936E00109281008091810082608093EE
:1007E00081008091810081608093810080918000F0
:1007F0008160809380008091B10084608093B1001B
:100800008091B00081608093B00080917A00846014
:1008100080937A0080917A00826080937A00809140
:100820007A00816080937A0080917A00806880935A
:100830007A001092C100E0914501F091460182E0FA
:100840008083E0914101F09142011082E0914301E7
:10085000F09144018FEC808310924D01E0914901A9
:10086000F0914A0186E08083E0914701F0914801D0
:10087000808180618083E0914701F091480180810F
:1008800088608083E0914701F09148018081806811
:100890008083E0914701F091480180818F7D8083C2
:1008A0008AE00E948D0089E00E948D0088E00E940D
:1008B0008D0087E00E948D0086E00E948D0085E01B
:1008C0000E948D0084E00E948D0083E00E948D00D4
:1008D000C0E0D0E085E391E00E941301892B09F08C
:1008E00092C08AE00E94C2017C019093260180930D
:1008F000250189E00E94C20190932801809327017D
:1009000088E00E94C20190932A018093290187E028
:100910000E94C20190932C0180932B0186E00E94DB
:10092000C20190932E0180932D0185E00E94C201A7
:100930009093300180932F0184E00E94C201909334
:1009400032018093310183E00E94C201909334010F
:1009500080933301C7010E947F028091270190910B
:1009600028010E947F028091290190912A010E9412
:100970007F0280912B0190912C010E947F02809137
:100980002D0190912E010E947F0280912F01909164
:1009900030010E947F0280913101909132010E94CA
:1009A0007F0280913301909134010E947F0242E0E6
:1009B00050E068E171E085E391E00E94B5000E949B
:1009C0000C024B015C0185E0C82ED12CE12CF12CEE
:1009D0000E940C02681979098A099B09683E7340D4
:1009E00081059105A8F321E0C21AD108E108F108B8
:1009F00088EE880E83E0981EA11CB11CC114D1049E
:100A0000E104F10429F7209709F464CF0E941F0143
:100A1000882309F45FCF0E9400005CCF8091D2014F
:100A20009091D301009711F00C94120608952F9223
:100A30003F924F925F926F927F928F929F92AF926E
:100A4000BF92CF92DF92EF92FF920F931F93CF93BB
:100A5000DF93CDB7DEB7CA1BDB0B0FB6F894DEBF52
:100A60000FBECDBF09942A88398848885F846E8478
:100A70007D848C849B84AA84B984C884DF80EE80C2
:100A8000FD800C811B81AA81B981CE0FD11D0FB6CB
:100A9000F894DEBF0FBECDBFED010895A1E21A2E7E
:100AA000AA1BBB1BFD010DC0AA1FBB1FEE1FFF1F12
:100AB000A217B307E407F50720F0A21BB30BE40B62
:100AC000F50B661F771F881F991F1A9469F76095A9
:100AD0007095809590959B01AC01BD01CF01089563
:100AE000EE0FFF1F0590F491E02D09940F931F93D3
:100AF000CF93DF938230910510F482E090E0E09193
:100B0000DA01F091DB0130E020E0B0E0A0E03097C6
:100B100099F42115310509F44AC0281B390B2430FA
:100B20003105D8F58A819B816115710589F1FB0139
:100B300093838283FE0111C0408151810281138120
:100B400048175907E0F04817590799F4109761F0D2
:100B500012960C93129713961C933296CF01DF9145
:100B6000CF911F910F9108950093DA011093DB014B
:100B7000F4CF2115310551F04217530738F0A90180
:100B8000DB019A01BD01DF01F801C1CFEF01F9CF0F
:100B90009093DB018093DA01CDCFFE01E20FF31FCA
:100BA000819391932250310939832883D7CF2091A3
:100BB000D8013091D901232B41F4209102013091C9
:100BC00003013093D9012093D80120910001309185
:100BD00001012115310541F42DB73EB740910401C3
:100BE00050910501241B350BE091D801F091D901FA
:100BF000E217F307A0F42E1B3F0B2817390778F0F4
:100C0000AC014E5F5F4F2417350748F04E0F5F1F52
:100C10005093D9014093D801819391939FCFF0E0F5
:100C2000E0E09CCFCF93DF930097E9F0FC0132978F
:100C300013821282A091DA01B091DB01ED0130E064
:100C400020E01097A1F420813181820F931F209121
:100C5000D8013091D9012817390709F061C0F09304
:100C6000D901E093D801DF91CF910895EA01CE1721
:100C7000DF07E8F54A815B819E0141155105B1F717
:100C8000E901FB83EA8349915991C40FD51FEC1701
:100C9000FD0761F4808191810296840F951FE9011F
:100CA00099838883828193819B838A83F0E0E0E04B
:100CB00012968D919C9113970097B9F52D913C91C7
:100CC0001197CD010296820F931F2091D801309188
:100CD000D9012817390739F6309751F51092DB0101
:100CE0001092DA01B093D901A093D801BCCFD3837D
:100CF000C28340815181840F951FC817D90761F4C1
:100D00004E5F5F4F88819981480F591F51834083FF
:100D10008A819B81938382832115310509F0B0CFAD
:100D2000F093DB01E093DA019ECFFD01DC01C0CF3F
:100D300013821282D7CFB0E0A0E0E1EAF6E00C9493
:100D400019058C01009751F4CB010E9476058C01A6
:100D5000C801CDB7DEB7E0E10C943505FC01E60F24
:100D6000F71F9C0122503109E217F30708F49DC0D8
:100D7000D901CD91DC911197C617D70798F0C530EE
:100D8000D10530F3CE0104978617970708F3C61BE9
:100D9000D70B2297C193D1936D937C93CF010E947F
:100DA0001206D6CF5B01AC1ABD0A4C018C0E9D1EFB
:100DB000A091DA01B091DB01512C412CF12CE12CF6
:100DC000109731F58091D8019091D9018815990536
:100DD00009F05CC04616570608F058C08091000123
:100DE00090910101009741F48DB79EB740910401A5
:100DF00050910501841B950BE817F90708F055C0C1
:100E0000F093D901E093D801F90171836083A0CFF9
:100E10008D919C91119712966C90129713967C90DD
:100E20001397A815B90559F56C0142E0C40ED11C01
:100E3000CA14DB0420F1AC014A195B09DA011296ED
:100E4000159780F06282738251834083D9016D933C
:100E50007C93E114F10471F0D7011396FC93EE93A7
:100E6000129776CF22968C0F9D1FF9019183808374
:100E7000F301EFCFF093DB01E093DA0169CF48167D
:100E8000590608F42C017D01D3019ACFCB010E94B1
:100E900076057C01009749F0AE01B8010E94580721
:100EA000C8010E941206870153CF10E000E050CF26
:100EB000FB01DC0102C001900D9241505040D8F777
:100EC0000895FB01DC0101900D920020E1F70895E7
:100ED00010E0C2E6D0E004C0FE010E947005219639
:0A0EE000C336D107C9F7F894FFCF1D
:100EEA000000DC018000000000005501B500E200AE
:0C0EFA00A2011301F10005010D0A000027
:00000001FF
